:020000040800F2
:1000000000000320851A00086D1800087318000806
:10001000791800087F180008851800080000000003
:100020000000000000000000000000008B18000825
:100030009918000800000000A7180008B51800086B
:10004000D51A0008D51A0008D51A0008D51A0008D4
:10005000D51A0008D51A0008D51A0008D51A0008C4
:10006000D51A0008D51A0008D51A0008D51A0008B4
:10007000D51A0008D51A0008D51A0008D51A0008A4
:10008000D51A0008D51A0008D51A0008D51A000894
:10009000D51A0008D51A0008D51A0008D51A000884
:1000A000D51A0008D51A0008D51A0008D51A000874
:1000B000D51A0008D51A0008D51A0008D51A000864
:1000C000D51A0008D51A0008D51A0008D51A000854
:1000D000D51A0008D51A0008D51A0008D51A000844
:1000E000D51A0008C1180008D51A0008D51A00084A
:1000F000D51A0008D51A0008D51A0008D51A000824
:10010000D51A0008D51A0008D51A0008D51A000813
:10011000D51A0008D51A0008D51A0008D51A000803
:10012000D51A0008D51A0008D51A0008D51A0008F3
:10013000D51A0008D51A0008D51A0008D51A0008E3
:10014000D51A0008D51A0008D51A0008D51A0008D3
:10015000D51A0008D51A0008D51A0008D51A0008C3
:10016000D51A0008D51A0008D51A0008D51A0008B3
:10017000D51A0008D51A0008D51A0008000000009A
:10018000D51A0008D51A0008D51A0008D51A000893
:10019000D51A0008D51A0008D51A0008D51A000883
:0C01A000D51A0008D51A0008D51A00086E
:1001B00010B5054C237833B9044B13B10448AFF3A1
:1001C00000800123237010BDD40100200000000036
:1001D000788F000808B5034B1BB103490348AFF300
:1001E000008008BD00000000D8010020788F0008C2
:1001F00001F0FF01102A2BDB10F0070F08D010F8D8
:10020000013B013A8B422DD010F0070F42B3F6D1DB
:10021000F0B441EA012141EA014122F007047FF0F4
:1002200000070023F0E80256083C85EA010586EA4B
:10023000010685FA47F5A3FA87F586FA47F6A5FA87
:1002400087F68EB9EED1F0BC01F0FF0102F0070293
:1002500032B110F8013B013A83EA010313B1F8D13E
:100260000020704701387047002D06BF354603381F
:10027000073815F0010F07D1013015F4807F02BF58
:10028000013015F4C03F0130F0BC0138704700BFA9
:10029000034613F8012B002AFBD1181A01387047C6
:1002A00081F0004102E000BF83F0004330B54FEA27
:1002B00041044FEA430594EA050F08BF90EA020F94
:1002C0001FBF54EA000C55EA020C7FEA645C7FEA27
:1002D000655C00F0E2804FEA5454D4EB5555B8BF4A
:1002E0006D420CDD2C4480EA020281EA030382EABB
:1002F000000083EA010180EA020281EA0303362D4D
:1003000088BF30BD11F0004F4FEA01314FF4801C1F
:100310004CEA113102D0404261EB410113F0004F31
:100320004FEA03334CEA133302D0524263EB4303E8
:1003300094EA050F00F0A780A4F10104D5F1200E86
:100340000DDB02FA0EFC22FA05F2801841F10001E1
:1003500003FA0EF2801843FA05F359410EE0A5F1B5
:1003600020050EF1200E012A03FA0EFC28BF4CF0E6
:10037000020C43FA05F3C01851EBE37101F000459C
:1003800007D54FF0000EDCF1000C7EEB00006EEBA9
:100390000101B1F5801F1BD3B1F5001F0CD3490833
:1003A0005FEA30004FEA3C0C04F101044FEA44528A
:1003B00012F5800F80F09A80BCF1004F08BF5FEA11
:1003C000500C50F1000041EB045141EA050130BDF1
:1003D0005FEA4C0C404141EB0101013C28BFB1F503
:1003E000801FE9D291F0000F04BF01460020B1FA4E
:1003F00081F308BF2033A3F10B03B3F120020CDA21
:100400000C3208DD02F1140CC2F10C0201FA0CF0FE
:1004100021FA02F10CE002F11402D8BFC2F1200C63
:1004200001FA02F120FA0CFCDCBF41EA0C01904019
:10043000E41AA2BF01EB0451294330BD6FEA040462
:100440001F3C1CDA0C340EDC04F11404C4F120024D
:1004500020FA04F001FA02F340EA030021FA04F35F
:1004600045EA030130BDC4F10C04C4F1200220FAB6
:1004700002F001FA04F340EA0300294630BD21FAF4
:1004800004F0294630BD94F0000F83F4801306BFBA
:1004900081F480110134013D4EE77FEA645C18BFAE
:1004A0007FEA655C29D094EA050F08BF90EA020F45
:1004B00005D054EA000C04BF1946104630BD91EA3D
:1004C000030F1EBF0021002030BD5FEA545C05D140
:1004D0004000494128BF41F0004130BD14F580047F
:1004E0003CBF01F5801130BD01F0004545F0FE41F3
:1004F00041F470014FF0000030BD7FEA645C1ABF28
:10050000194610467FEA655C1CBF0B46024650EA5E
:10051000013406BF52EA033591EA030F41F400218A
:1005200030BD00BF90F0000F04BF0021704730B510
:100530004FF4806404F132044FF000054FF00001E5
:1005400050E700BF90F0000F04BF0021704730B5A6
:100550004FF4806404F1320410F0004548BF40427B
:100560004FF000013EE700BF42004FEAE2014FEAD0
:1005700031014FEA02701FBF12F07F4393F07F4FAB
:1005800081F06051704732F07F4208BF704793F0AE
:100590007F4F04BF41F40021704730B54FF46074C1
:1005A00001F0004521F000411CE700BF50EA0102C4
:1005B00008BF704730B54FF000050AE050EA01026D
:1005C00008BF704730B511F0004502D5404261EBDD
:1005D00041014FF4806404F132045FEA915C3FF41E
:1005E000D8AE4FF003025FEADC0C18BF03325FEABB
:1005F000DC0C18BF033202EBDC02C2F1200300FA6C
:1006000003FC20FA02F001FA03FE40EA0E0021FA90
:1006100002F11444BDE600BF70B54FF0FF0C4CF47E
:10062000E06C1CEA11541DBF1CEA135594EA0C0F30
:1006300095EA0C0F00F0DEF82C4481EA030621EA6B
:100640004C5123EA4C5350EA013518BF52EA0335A6
:1006500041F4801143F4801338D0A0FB02CE4FF058
:100660000005E1FB02E506F00042E0FB03E54FF088
:100670000006E1FB03569CF0000F18BF4EF0010E80
:10068000A4F1FF04B6F5007F64F5407404D25FEA7C
:100690004E0E6D4146EB060642EAC62141EA55512F
:1006A0004FEAC52040EA5E504FEACE2EB4F1FD0C71
:1006B00088BFBCF5E06F1ED8BEF1004F08BF5FEAEF
:1006C000500E50F1000041EB045170BD06F00046A1
:1006D00046EA010140EA020081EA0301B4EB5C044E
:1006E000C2BFD4EB0C0541EA045170BD41F4801146
:1006F0004FF0000E013C00F3AB8014F1360FDEBF6B
:10070000002001F0004170BDC4F10004203C35DA46
:100710000C341BDC04F11404C4F1200500FA05F3C9
:1007200020FA04F001FA05F240EA020001F000426A
:1007300021F0004110EBD37021FA04F642EB0601E0
:100740005EEA430E08BF20EAD37070BDC4F10C040A
:10075000C4F1200500FA04F320FA05F001FA04F2CE
:1007600040EA020001F0004110EBD37041F10001BA
:100770005EEA430E08BF20EAD37070BDC4F12005C5
:1007800000FA05F24EEA020E20FA04F301FA05F22D
:1007900043EA020321FA04F001F0004121FA04F2D5
:1007A00020EA020000EBD3705EEA430E08BF20EAA5
:1007B000D37070BD94F0000F0FD101F000464000DF
:1007C00041EB010111F4801F08BF013CF7D041EA61
:1007D000060195F0000F18BF704703F00046520065
:1007E00043EB030313F4801F08BF013DF7D043EA36
:1007F0000603704794EA0C0F0CEA135518BF95EAEC
:100800000C0F0CD050EA410618BF52EA4306D1D172
:1008100081EA030101F000414FF0000070BD50EA91
:10082000410606BF1046194652EA430619D094EA1B
:100830000C0F02D150EA013613D195EA0C0F05D105
:1008400052EA03361CBF104619460AD181EA030159
:1008500001F0004141F0FE4141F470014FF0000011
:1008600070BD41F0FE4141F4780170BD70B54FF0AC
:10087000FF0C4CF4E06C1CEA11541DBF1CEA13552C
:1008800094EA0C0F95EA0C0F00F0A7F8A4EB05040E
:1008900081EA030E52EA03354FEA013100F0888005
:1008A0004FEA03334FF0805545EA131343EA1263CE
:1008B0004FEA022245EA111545EA10654FEA002683
:1008C0000EF000419D4208BF964244F1FD0404F53C
:1008D000407402D25B084FEA3202B61A65EB030598
:1008E0005B084FEA32024FF480104FF4002CB6EB55
:1008F000020E75EB030E22BFB61A754640EA0C00D5
:100900005B084FEA3202B6EB020E75EB030E22BF14
:10091000B61A754640EA5C005B084FEA3202B6EB55
:10092000020E75EB030E22BFB61A754640EA9C0014
:100930005B084FEA3202B6EB020E75EB030E22BFE4
:10094000B61A754640EADC0055EA060E18D04FEAA2
:10095000051545EA16754FEA06164FEAC30343EA42
:1009600052734FEAC2025FEA1C1CC0D111F4801F0F
:100970000BD141EA00014FF000004FF0004CB6E708
:1009800011F4801F04BF01430020B4F1FD0C88BFA7
:10099000BCF5E06F3FF6AFAEB5EB030C04BFB6EBB2
:1009A000020C5FEA500C50F1000041EB045170BDA5
:1009B0000EF0004E4EEA113114EB5C04C2BFD4EBD2
:1009C0000C0541EA045170BD41F480114FF0000E56
:1009D000013C90E645EA060E8DE60CEA135594EAD2
:1009E0000C0F08BF95EA0C0F3FF43BAF94EA0C0FD5
:1009F0000AD150EA01347FF434AF95EA0C0F7FF44A
:100A000025AF104619462CE795EA0C0F06D152EA9D
:100A100003353FF4FDAE1046194622E750EA410681
:100A200018BF52EA43067FF4C5AE50EA41047FF492
:100A30000DAF52EA43057FF4EBAE12E74FF0FF3CF7
:100A400006E000BF4FF0010C02E000BF4FF0010CC8
:100A50004DF804CD4FEA410C7FEA6C5C4FEA430C41
:100A600018BF7FEA6C5C1BD001B050EA410C0CBF90
:100A700052EA430C91EA030F02BF90EA020F0020F2
:100A8000704710F1000F91EA030F58BF994208BF59
:100A900090422CBFD8176FEAE37040F00100704716
:100AA0004FEA410C7FEA6C5C02D150EA013C07D16D
:100AB0004FEA430C7FEA6C5CD6D152EA033CD3D0B8
:100AC0005DF8040B704700BF8446104662468C46B2
:100AD0001946634600E000BF01B5FFF7B7FF0028E5
:100AE00048BF10F1000F01BD4DF808EDFFF7F4FF0E
:100AF0000CBF012000205DF808FB00BF4DF808ED99
:100B0000FFF7EAFF34BF012000205DF808FB00BFBB
:100B10004DF808EDFFF7E0FF94BF012000205DF8DD
:100B200008FB00BF4DF808EDFFF7CEFF94BF012092
:100B300000205DF808FB00BF4DF808EDFFF7C4FF8B
:100B400034BF012000205DF808FB00BF4FEA410CD4
:100B50007FEA6C5C02D150EA013C0AD14FEA430CB7
:100B60007FEA6C5C02D152EA033C02D14FF00000F4
:100B700070474FF0010070474FEA410212F5001232
:100B800015D211D56FF47873B3EB625212D94FEAD4
:100B9000C12343F0004343EA505311F0004F23FABE
:100BA00002F018BF404270474FF00000704750EA13
:100BB000013005D111F0004008BF6FF000407047D0
:100BC0004FF00000704700BF4A0011D212F500122A
:100BD00011D20DD56FF47873B3EB62520ED44FEA95
:100BE000C12343F0004343EA505323FA02F0704715
:100BF0004FF00000704750EA013002D14FF0FF3053
:100C000070474FF0000070474FEA4102B2F1E043F5
:100C100024BFB3F5001CDCF1FE5C0DD901F0004CE3
:100C20004FEAC0024CEA5070B2F1004F40EB830033
:100C300008BF20F00100704711F0804F21D113F15F
:100C40003872BCBF01F00040704741F480114FEA98
:100C50005252C2F11802C2F1200C10FA0CF320FA21
:100C600002F018BF40F001004FEAC1234FEAD3233E
:100C700003FA0CFC40EA0C0023FA02F34FEA4303A8
:100C8000CCE77FEA625307D150EA01331EBF4FF031
:100C9000FE4040F44000704701F0004040F0FE404C
:100CA00040F40000704700BF53B94AB9002908BF9B
:100CB00000281CBF4FF0FF314FF0FF3000F0A6B905
:100CC000ADF1080C6DE904CE00F03CF8DDF804E06D
:100CD000DDE9022304B0704738B500220023044642
:100CE0000D46FFF70BFF28B920462946BDE83840DE
:100CF00000F00AB8204605F1004100F005F8404236
:100D000061EB410138BD00BFD0B50C4B0022064657
:100D10000F46FFF781FCFFF757FF0446FFF702FC81
:100D2000074B0022FFF778FC02460B463046394657
:100D3000FFF7BAFAFFF748FF2146D0BD0000F03DAB
:100D40000000F0412DE9F047089E0D4604460F468D
:100D5000002B4AD18A42944665D9B2FA82F343B154
:100D600002FA03FCC3F120029F4020FA02F217436B
:100D70009C404FEA1C4E1FFA8CF5B7FBFEF1220C8B
:100D80000EFB117742EA074201FB05F090420AD9B7
:100D90001CEB020201F1FF3780F01C81904240F20F
:100DA000198102396244121AA4B2B2FBFEF00EFBA2
:100DB000102244EA024400FB05F5A5420AD91CEBC7
:100DC000040400F1FF3280F00781A54240F2048163
:100DD0006444023840EA0140641B00211EB1DC403B
:100DE0000023C6E90043BDE8F0878B4208D9002EF6
:100DF00000F0ED800021C6E900050846BDE8F08757
:100E0000B3FA83F1002949D1AB4202D3824200F206
:100E1000F880841A65EB030201201746002EE2D009
:100E2000C6E90047DFE702B9FFDEB2FA82F3002B22
:100E300040F090808A1A4FEA1C471FFA8CFE01216D
:100E4000B2FBF7F507FB1520220C42EA00420EFB2D
:100E500005F0904208D91CEB020205F1FF3802D2DE
:100E6000904200F2CB804546121AA4B2B2FBF7F0D2
:100E700007FB102244EA02440EFB00FEA64508D9F7
:100E80001CEB040400F1FF3202D2A64500F2BB8045
:100E90001046A4EB0E0440EA05409FE7C1F120078D
:100EA0008B4022FA07FC4CEA030C05FA01F420FA05
:100EB00007F3FD404FEA1C492343B5FBF9F81FFA3D
:100EC0008CFE09FB18551C0C44EA054408FB0EF582
:100ED000A54202FA01F200FA01F00BD91CEB04045E
:100EE00008F1FF3A80F08880A54240F28580A8F1A1
:100EF00002086444641B9DB2B4FBF9F309FB13447C
:100F000045EA044403FB0EFEA64508D91CEB040485
:100F100003F1FF356CD2A6456AD9023B644443EA2B
:100F20000843A3FB0295A4EB0E04AC42C846AE46B0
:100F300056D353D056B1B0EB080264EB0E0404FA5A
:100F400007F7CA40CC401743C6E900741846002191
:100F5000BDE8F087C3F1200102FA03FC20FA01F298
:100F600025FA01F19D402A434FEA1C471FFA8CFEE7
:100F7000B1FBF7F007FB1015110C41EA054100FB2E
:100F80000EF58D4204FA03F408D91CEB010100F1BF
:100F9000FF382FD28D422DD902386144491B92B2BD
:100FA000B1FBF7F507FB151142EA014205FB0EF113
:100FB000914208D91CEB020205F1FF3816D291428A
:100FC00014D9023D6244521A45EA004138E73146DD
:100FD000304608E73946E6E61046FBE64845A9D222
:100FE000B9EB020865EB0C0E013BA3E74546EAE7C7
:100FF0002B4694E74046D1E7D0467BE7023D62446A
:1010000032E708460AE76444023842E7704700BF07
:1010100080B586B002AF0346FB71FB7923F00F0366
:10102000FB73FB791B01BB73FB7B43F00C03DBB24F
:101030003B72FB7B43F00803DBB27B72BB7B43F06C
:101040000C03DBB2BB72BB7B43F00803DBB2FB7269
:1010500007F108026423009304234E21034801F0A2
:1010600007FA00BF1037BD4680BD00BF0802002050
:1010700080B586B002AF0346FB71FB7923F00F0306
:10108000FB73FB791B01BB73FB7B43F00D03DBB2EE
:101090003B72FB7B43F00903DBB27B72BB7B43F00B
:1010A0000D03DBB2BB72BB7B43F00903DBB2FB7207
:1010B00007F108026423009304234E21034801F042
:1010C000D7F900BF1037BD4680BD00BF0802002021
:1010D00080B500AF322000F071FD3020FFF798FF9F
:1010E000052000F06BFD3020FFF792FF012000F09B
:1010F00065FD3020FFF78CFF0A2000F05FFD202007
:10110000FFF786FF0A2000F059FD2820FFF780FF37
:10111000012000F053FD0820FFF77AFF012000F0C6
:101120004DFD0120FFF774FF012000F047FD012075
:1011300000F044FD0620FFF76BFF012000F03EFDAC
:101140000C20FFF765FF00BF80BD80B582B000AF07
:10115000786006E07B685A1C7A601B781846FFF7B7
:1011600087FF7B681B78002BF4D100BF00BF0837D6
:10117000BD4680BD80B586B000AF3B1D00221A6021
:101180005A609A60DA601A6100233B6015233B7154
:1011900045237B710023BB7100233B6100237B61EE
:1011A0003B1D01221946124802F002FC0346002BA7
:1011B00001D000F06BFA01233B7001237B70012307
:1011C000BB702423FB703B4601221946084802F0FD
:1011D000E7FC0346002B01D000F058FA43F2F4225A
:1011E0000121034802F0F5FF00BF1837BD4680BD5E
:1011F0005C02002080B58AB000AF3B462822002167
:10120000184604F07EFA15233B7048237B700023B8
:10121000BB7000237B600023FB6000233B61002345
:101220007B610023BB610023FB61012387F8203031
:101230004FF480737B623B4601221946054802F059
:1012400083FD0346002B01D000F020FA00BF2837B1
:10125000BD4680BD5C02002080B588B002AF3B4631
:1012600000221946124802F03DFC07F11403002247
:1012700019460F4802F018FD3B781A467B7819464C
:10128000BB7800930B460B490B4804F0D7F9BB7DA4
:101290001A467B7D1946FB7D03F5FA6300930B46E6
:1012A0000449064804F0CAF900BF1837BD4680BD9E
:1012B0005C020020908F0008FC010020F00100205B
:1012C00080B500AF8020FFF7A3FE0548FFF73DFF84
:1012D000C020FFF79DFE0348FFF737FF00BF80BD2A
:1012E000FC010020F001002080B483B000AF7860E2
:1012F000044B01221A7000BF0C37BD465DF8047B19
:10130000704700BF0602002080B582B000AF4FF4E6
:101310008041124800F04DFF8020FFF779FE104811
:10132000FFF713FFC020FFF773FE0E48FFF70DFF16
:1013300040F6B83000F042FC00237B6005E00A482C
:10134000FFF703FF7B6801337B607B683B2BF6DD97
:1013500000BF00BF0837BD4680BD00BF000402408B
:10136000A08F0008B08F0008C08F000880B500AFC4
:1013700000F0B2FB00F036F800F036F900F0A4F807
:1013800000F0E2F800F006F9FFF7A2FE0121134891
:1013900002F039FF034643F2F422934201D0FFF7F3
:1013A000E9FEFFF727FFFFF757FFFFF789FF4FF42D
:1013B000FA7000F003FC0A4B1B78012BF3D140F6C6
:1013C000B83000F0FBFBFFF79FFF40F6B83000F0AD
:1013D000F5FB034B00221A70E5E700BF5C0200201A
:1013E0000602002080B594B000AF07F12003302240
:1013F0000021184604F085F907F10C0300221A6059
:101400005A609A60DA601A610023BB602C4B1B6C37
:101410002B4A43F080531364294B1B6C03F0805319
:10142000BB60BB6800237B60264B1B68254A43F4E6
:1014300040431360234B1B6803F440437B607B688D
:1014400009233B624FF480337B6201237B630223D9
:10145000BB634FF48003FB6304233B64B4237B64CE
:101460000223BB640423FB6407F12003184601F048
:10147000D1FB0346002B01D000F008F901F07AFB04
:101480000346002B01D000F001F90F23FB6002237B
:101490003B6100237B614FF4A053BB614FF4805349
:1014A000FB6107F10C030521184601F02BFE0346F2
:1014B000002B01D000F0EAF800BF5037BD4680BDD8
:1014C000003802400070004080B500AF1B4B1C4A42
:1014D0001A601A4B1B4A5A60184B00229A60174B2D
:1014E0000022DA60154B4FF480421A61134B002240
:1014F0005A61124B00229A61104B0022DA610F4BA5
:1015000000221A620D4800F06FFE0346002B01D046
:1015100000F0BCF80021094801F0B1FA0346002BA5
:1015200001D000F0B3F80021044801F0E4FA0346CA
:10153000002B01D000F0AAF800BF80BD08020020F7
:1015400000540040A086010080B500AF0F4B104A48
:101550001A600E4B00225A600C4B7F229A600B4B94
:10156000FF22DA60094B00221A61084B00225A61FF
:10157000064B00229A61054802F0A4F90346002BAD
:1015800001D000F083F800BF80BD00BF5C020020E6
:101590000028004080B500AF114B124A1A60104B72
:1015A0004FF4E1325A600E4B00229A600C4B00223D
:1015B000DA600B4B00221A61094B0C225A61084B6E
:1015C00000229A61064B0022DA61054802F03DFED6
:1015D0000346002B01D000F059F800BF80BD00BFCA
:1015E0007C0200200044004080B588B000AF07F1C5
:1015F0000C0300221A605A609A60DA601A610023B4
:10160000BB60204B1B6B1F4A43F0800313631D4BD1
:101610001B6B03F08003BB60BB6800237B60194B2E
:101620001B6B184A43F001031363164B1B6B03F04B
:1016300001037B607B6800233B60124B1B6B114AEC
:1016400043F0020313630F4B1B6B03F002033B6079
:101650003B6800224FF480410B4800F091FD4FF4AD
:101660008043FB6001233B6100237B610023BB615E
:1016700007F10C031946044800F0D6FB00BF2037E1
:10168000BD4680BD003802400004024080B400AF77
:1016900072B600BFFEE7000080B483B000AF002345
:1016A0007B60104B5B6C0F4A43F4804353640D4BDB
:1016B0005B6C03F480437B607B6800233B60094BD9
:1016C0001B6C084A43F080531364064B1B6C03F0F9
:1016D00080533B603B6800BF0C37BD465DF8047B20
:1016E000704700BF0038024080B58AB000AF786014
:1016F00007F1140300221A605A609A60DA601A61D6
:101700007B681B68194A93422BD100233B61184B1D
:101710001B6B174A43F002031363154B1B6B03F05B
:1017200002033B613B69C0237B611223BB61002341
:10173000FB6103233B6204237B6207F11403194618
:101740000C4800F071FB0023FB60094B1B6C084A3E
:1017500043F400131364064B1B6C03F40013FB608B
:10176000FB6800BF2837BD4680BD00BF0054004065
:10177000003802400004024080B58EB000AF7860AF
:1017800007F1080330220021184603F0BAFF7B68F6
:101790001B68104A934219D12023BB604FF4007399
:1017A0003B6307F10803184601F0CCFE0346002B0B
:1017B00001D0FFF76BFF084B01221A6000220021C5
:1017C000292000F0FAFA292000F013FB00BF383777
:1017D000BD4680BD002800403C0E474280B58AB01F
:1017E00000AF786007F1140300221A605A609A6013
:1017F000DA601A617B681B68194A93422BD1002377
:101800003B61184B1B6C174A43F400331364154BB0
:101810001B6C03F400333B613B690023FB60114BFD
:101820001B6B104A43F0010313630E4B1B6B03F059
:101830000103FB60FB680C237B610223BB61002377
:10184000FB6103233B6207237B6207F11403194604
:10185000054800F0E9FA00BF2837BD4680BD00BF4B
:1018600000440040003802400000024080B400AF55
:10187000FEE780B400AFFEE780B400AFFEE780B4BF
:1018800000AFFEE780B400AFFEE780B400AF00BF5A
:10189000BD465DF8047B704780B400AF00BFBD4615
:1018A0005DF8047B704780B400AF00BFBD465DF8B3
:1018B000047B704780B500AF00F060F900BF80BDC9
:1018C00080B500AF024802F081FB00BF80BD00BFC1
:1018D0005C02002080B400AF01231846BD465DF8CD
:1018E000047B704780B582B000AF7860396003F048
:1018F0005BFF034616221A604FF0FF331846083785
:10190000BD4680BD80B582B000AF78604FF0FF313A
:101910007868FFF7E7FFFEE780B586B000AFF860B4
:10192000B9607A6000237B610AE0AFF30080014672
:10193000BB685A1CBA60CAB21A707B6901337B61FA
:101940007A697B689A42F0DB7B6818461837BD4697
:1019500080BD80B586B000AFF860B9607A600023C2
:101960007B6109E0BB685A1CBA601B781846AFF36C
:1019700000807B6901337B617A697B689A42F1DB85
:101980007B6818461837BD4680BD80B483B000AF71
:1019900078604FF0FF3318460C37BD465DF8047B86
:1019A000704780B483B000AF786039603B684FF413
:1019B00000525A60002318460C37BD465DF8047B80
:1019C000704780B483B000AF7860012318460C37AD
:1019D000BD465DF8047B704780B485B000AFF86009
:1019E000B9607A60002318461437BD465DF8047B61
:1019F0007047000080B586B000AF7860144A154B80
:101A0000D31A7B617B693B61134B1B68002B02D1AE
:101A1000114B124A1A60104B1A687B6813443A69DA
:101A20009A4207D203F0C0FE03460C221A604FF020
:101A3000FF3309E0084B1B68FB60074B1A687B68A3
:101A40001344054A1360FB6818461837BD4680BD2D
:101A50000000032000040000C00200201804002041
:101A600080B400AF064BD3F88830054A43F47003C6
:101A7000C2F8883000BFBD465DF8047B704700BFE8
:101A800000ED00E0DFF834D00D480E490E4A002387
:101A900002E0D458C4500433C4188C42F9D30B4A22
:101AA0000B4C002301E013600432A242FBD3FFF78A
:101AB000D7FF03F07FFEFFF759FC704700000320BB
:101AC00000000020D401002018940008D401002058
:101AD00014040020FEE7000080B500AF0E4B1B6829
:101AE0000D4A43F4007313600B4B1B680A4A43F41E
:101AF00080631360084B1B68074A43F480731360CC
:101B0000032000F04FF90F2000F008F8FFF7C4FDA4
:101B10000023184680BD00BF003C024080B582B063
:101B200000AF7860124B1A68124B1B7819464FF4BD
:101B30007A73B3FBF1F3B2FBF3F3184600F067F9E5
:101B40000346002B01D001230EE07B680F2B0AD83F
:101B5000002279684FF0FF3000F02FF9064A7B68C9
:101B60001360002300E0012318460837BD4680BDFE
:101B700000000020080000200400002080B400AF16
:101B8000064B1B781A46064B1B681344044A136025
:101B900000BFBD465DF8047B704700BF0800002011
:101BA000C402002080B400AF034B1B681846BD463A
:101BB0005DF8047B704700BFC402002080B584B08C
:101BC00000AF7860FFF7EEFFB8607B68FB60FB68F2
:101BD000B3F1FF3F05D00A4B1B781A46FB6813444C
:101BE000FB6000BFFFF7DEFF0246BB68D31AFA684E
:101BF0009A42F7D800BF00BF1037BD4680BD00BF76
:101C00000800002080B485B000AF78607B6803F0E6
:101C10000703FB600C4BDB68BB60BA684FF6FF0341
:101C20001340BB60FB681A02BB68134343F0BF63F9
:101C300043F40033BB60044ABB68D36000BF143771
:101C4000BD465DF8047B704700ED00E080B400AF56
:101C5000044BDB681B0A03F007031846BD465DF81A
:101C6000047B704700ED00E080B483B000AF034612
:101C7000FB7197F90730002B0BDBFB7903F01F0298
:101C8000074997F907305B09012000FA02F241F891
:101C9000232000BF0C37BD465DF8047B704700BFB2
:101CA00000E100E080B483B000AF03463960FB710F
:101CB00097F90730002B0ADB3B68DAB20C4997F939
:101CC00007301201D2B20B4483F800230AE03B68CC
:101CD000DAB20849FB7903F00F03043B1201D2B2D8
:101CE0000B441A7600BF0C37BD465DF8047B704785
:101CF00000E100E000ED00E080B489B000AFF860E2
:101D0000B9607A60FB6803F00703FB61FB69C3F10C
:101D10000703042B28BF0423BB61FB690433062B94
:101D200002D9FB69033B00E000237B614FF0FF32E7
:101D3000BB6902FA03F3DA43BB681A407B699A4035
:101D40004FF0FF317B6901FA03F3D9437B680B4005
:101D5000134318462437BD465DF8047B70470000E6
:101D600080B582B000AF78607B68013BB3F1807FC3
:101D700001D301230FE00A4A7B68013B53600F2126
:101D80004FF0FF30FFF78EFF054B00229A60044BA7
:101D900007221A60002318460837BD4680BD00BFE1
:101DA00010E000E080B582B000AF78607868FFF79F
:101DB00029FF00BF0837BD4680BD80B586B000AFA3
:101DC0000346B9607A60FB7300237B61FFF73EFF37
:101DD00078617A68B9687869FFF78EFF024697F9EB
:101DE0000F3011461846FFF75DFF00BF1837BD469C
:101DF00080BD80B582B000AF0346FB7197F9073014
:101E00001846FFF731FF00BF0837BD4680BD80B5DB
:101E100082B000AF78607868FFF7A2FF03461846EB
:101E20000837BD4680BD000080B489B000AF78603F
:101E3000396000237B6100233B610023BB610023E9
:101E4000FB6177E10122FB6902FA03F37B613B68E6
:101E50001B687A6913403B613A697B699A4240F09A
:101E600066813B685B6803F00303012B05D03B6888
:101E70005B6803F00303022B30D17B689B68BB6176
:101E8000FB695B00032202FA03F3DB43BA691340E8
:101E9000BB613B68DA68FB695B0002FA03F3BA696D
:101EA0001343BB617B68BA699A607B685B68BB61FE
:101EB0000122FB6902FA03F3DB43BA691340BB61F9
:101EC0003B685B681B0903F00102FB6902FA03F33C
:101ED000BA691343BB617B68BA695A603B685B6847
:101EE00003F00303032B17D07B68DB68BB61FB693E
:101EF0005B00032202FA03F3DB43BA691340BB61C0
:101F00003B689A68FB695B0002FA03F3BA69134302
:101F1000BB617B68BA69DA603B685B6803F0030306
:101F2000022B23D1FB69DA087B68083253F8223090
:101F3000BB61FB6903F007039B000F2202FA03F366
:101F4000DB43BA691340BB613B681A69FB6903F064
:101F500007039B0002FA03F3BA691343BB61FB69F1
:101F6000DA087B680832B96943F822107B681B687D
:101F7000BB61FB695B00032202FA03F3DB43BA692E
:101F80001340BB613B685B6803F00302FB695B00C5
:101F900002FA03F3BA691343BB617B68BA691A603A
:101FA0003B685B6803F44033002B00F0C0800023E3
:101FB000FB60664B5B6C654A43F480435364634B40
:101FC0005B6C03F48043FB60FB68614AFB699B0820
:101FD000023352F82330BB61FB6903F003039B001B
:101FE0000F2202FA03F3DB43BA691340BB617B683B
:101FF000584A934237D07B68574A934231D07B6826
:10200000564A93422BD07B68554A934225D07B6831
:10201000544A93421FD07B68534A934219D07B683D
:10202000524A934213D07B68514A93420DD07B6849
:10203000504A934207D07B684F4A934201D109230B
:1020400012E00A2310E008230EE007230CE0062329
:102050000AE0052308E0042306E0032304E002234A
:1020600002E0012300E00023FA6902F0030292007B
:102070009340BA691343BB613549FB699B0802333E
:10208000BA6941F823203D4B9B68BB613B69DB4348
:10209000BA691340BB613B685B6803F48013002B93
:1020A00003D0BA693B691343BB61344ABB6993608F
:1020B000324BDB68BB613B69DB43BA691340BB61F0
:1020C0003B685B6803F40013002B03D0BA693B69DB
:1020D0001343BB61294ABB69D360284B5B68BB6172
:1020E0003B69DB43BA691340BB613B685B6803F43F
:1020F0000033002B03D0BA693B691343BB611F4A0D
:10210000BB6953601D4B1B68BB613B69DB43BA690C
:102110001340BB613B685B6803F48033002B03D042
:10212000BA693B691343BB61144ABB691360FB691D
:102130000133FB61FB690F2B7FF684AE00BF00BF4C
:102140002437BD465DF8047B704700BF003802406D
:102150000038014000000240000402400008024034
:10216000000C02400010024000140240001802401F
:10217000001C02400020024000240240003C0140BC
:1021800080B483B000AF78600B467B8013467B70D1
:102190007B78002B03D07A887B689A6103E07B8888
:1021A0001A047B689A6100BF0C37BD465DF8047B5A
:1021B000704780B485B000AF78600B467B807B6849
:1021C0005B69FB607A88FB6813401A04FB68D9439B
:1021D0007B880B401A437B689A6100BF1437BD4669
:1021E0005DF8047B7047000080B584B000AF786074
:1021F0007B68002B01D101232BE17B6893F83D30F4
:10220000DBB2002B06D17B68002283F83C20786883
:10221000FFF76AFA7B68242283F83D207B681B68FD
:102220001A687B681B6822F001021A607B681B68D1
:102230001A687B681B6842F400421A607B681B685E
:102240001A687B681B6822F400421A6001F052F998
:10225000F8607B685B68814A934207D8FB68804AD4
:10226000934294BF01230023DBB206E0FB687D4A62
:10227000934294BF01230023DBB2002B01D0012342
:10228000E7E0FB68784AA2FB03239B0CBB607B68FA
:102290001B685B6823F03F017B681B68BA680A43D0
:1022A0005A607B681B681B6A23F03F017B685B6890
:1022B0006A4A934202D8BB68013309E0BB684FF415
:1022C000967202FB03F3694AA2FB03239B090133C5
:1022D0007A6812680B4313627B681B68DB6923F41E
:1022E0004F4222F0FF027B685B685C498B4219D841
:1022F000FB68591E7B685B685B00B1FBF3F3591CFC
:1023000040F6FC730B40002B0AD0FB68591E7B681B
:102310005B685B00B1FBF3F30133C3F30B0351E0E4
:1023200004234FE07B689B68002B11D1FB68581E8B
:102330007B6859680B465B000B44B0FBF3F3013339
:10234000C3F30B03002B0CBF01230023DBB212E00D
:10235000FB68581E7B6859680B469B000B4499002C
:102360000B44B0FBF3F30133C3F30B03002B0CBF9F
:1023700001230023DBB2002B01D0012322E07B6884
:102380009B68002B0ED1FB68581E7B6859680B4672
:102390005B000B44B0FBF3F30133C3F30B0343F4D3
:1023A00000430FE0FB68581E7B6859680B469B0092
:1023B0000B4499000B44B0FBF3F30133C3F30B035D
:1023C00043F44043796809681343CB617B681B6819
:1023D0001B6823F0C0017B68DA697B681B6A1A43BB
:1023E0007B681B680A431A607B681B689B6823F440
:1023F000034323F0FF037A6811697A68D2681143B6
:102400007A6812680B4393607B681B68DB6823F073
:10241000FF017B685A697B689B691A437B681B686C
:102420000A43DA607B681B681A687B681B6842F0A5
:1024300001021A607B6800221A647B68202283F8FC
:102440003D207B6800221A637B68002283F83E20CF
:10245000002318461037BD4680BD00BFA08601008E
:102460007F841E00FF083D0083DE1B43D34D6210B6
:1024700080B588B002AFF8607A601A460B467B815F
:1024800013463B81FFF78EFB7861FB6893F83D3084
:10249000DBB2202B40F0E0807B69009319230122FE
:1024A0007049F86800F064F90346002B01D002235C
:1024B000D3E0FB6893F83C30012B01D10223CCE040
:1024C000FB68012283F83C20FB681B681B6803F053
:1024D0000103012B07D0FB681B681A68FB681B68A7
:1024E00042F001021A60FB681B681A68FB681B68EF
:1024F00022F400621A60FB68212283F83D20FB6809
:10250000102283F83E20FB6800221A64FB687A6878
:102510005A62FB683A895A85FB685B8D9AB2FB6800
:102520001A85FB68504ADA6279897B693A6AF868E9
:1025300000F09CF80346002B01D001238DE000231E
:102540003B61FB681B685B693B61FB681B689B69BF
:102550003B613B6966E07A69396AF86800F0DEF948
:102560000346002B0DD0FB681B6C042B07D1FB68C6
:102570001B681A68FB681B6842F400721A6001232A
:102580006BE0FB685B6A1A78FB681B681A61FB6882
:102590005B6A5A1CFB685A62FB685B8D9BB2013B0D
:1025A0009AB2FB685A85FB681B8D013B9AB2FB68A7
:1025B0001A85FB681B685B6903F00403042B1BD1BD
:1025C000FB681B8D002B17D0FB685B6A1A78FB68D1
:1025D0001B681A61FB685B6A5A1CFB685A62FB68DD
:1025E0005B8D9BB2013B9AB2FB685A85FB681B8DE1
:1025F000013B9AB2FB681A857A69396AF86800F07B
:10260000CEF90346002B0DD0FB681B6C042B07D1C1
:10261000FB681B681A68FB681B6842F400721A604A
:1026200001231AE0FB681B8D002B94D1FB681B680B
:102630001A68FB681B6842F400721A60FB6820226B
:1026400083F83D20FB68002283F83E20FB680022CF
:1026500083F83C20002300E0022318461837BD46CB
:1026600080BD00BF020010000000FFFF80B588B0F1
:1026700002AFF8607A603B600B467B81FB68DB6AE7
:102680007B617B69082B06D07B69012B03D07B69BA
:1026900013F5803F08D1FB681B681A68FB681B684C
:1026A00042F480721A600BE0FB681B6B122B07D19F
:1026B000FB681B681A68FB681B6842F480721A602A
:1026C0003B6800937B6800224FF00111F86800F02E
:1026D0004FF80346002B0DD0FB681B681B6803F402
:1026E0008073B3F5807F03D1FB684FF400721A64E6
:1026F000032335E0FB681B69B3F5804F08D17B8964
:10270000DBB21A46FB681B6802F0FE021A611BE08E
:102710007B89DB11DBB203F00603DBB263F00F034E
:10272000DAB2FB681B681A613B687A680E49F86880
:1027300000F075F80346002B01D0012310E07B89DF
:10274000DAB2FB681B681A613B687A680749F86867
:1027500000F065F80346002B01D0012300E00023C0
:1027600018461837BD4680BD080001000200010070
:1027700080B584B000AFF860B9603B601346FB7170
:1027800025E03B68B3F1FF3F21D0FFF70BFA02468B
:10279000BB69D31A3A689A4202D33B68002B16D120
:1027A000FB6800221A63FB68202283F83D20FB6847
:1027B000002283F83E20FB681B6C43F02002FB687C
:1027C0001A64FB68002283F83C20012323E0BB68E5
:1027D0001B0CDBB2012B0DD1FB681B685B69DA4374
:1027E000BB6813409BB2002B0CBF01230023DBB25C
:1027F0001A460CE0FB681B689B69DA43BB68134010
:102800009BB2002B0CBF01230023DBB21A46FB79DD
:102810009A42B6D0002318461037BD4680BD80B519
:1028200084B000AFF860B9607A603B6051E0FB684B
:102830001B685B6903F48063B3F5806F23D1FB6889
:102840001B681A68FB681B6842F400721A60FB6818
:102850001B686FF480625A61FB6800221A63FB6890
:10286000202283F83D20FB68002283F83E20FB688D
:102870001B6C43F00402FB681A64FB68002283F8B7
:102880003C20012346E07B68B3F1FF3F21D0FFF7F6
:1028900089F902463B68D31A7A689A4202D37B6868
:1028A000002B16D1FB6800221A63FB68202283F8F4
:1028B0003D20FB68002283F83E20FB681B6C43F040
:1028C0002002FB681A64FB68002283F83C20012385
:1028D00020E0BB681B0CDBB2012B0CD1FB681B6832
:1028E0005B69DA43BB6813409BB2002B14BF012322
:1028F0000023DBB20BE0FB681B689B69DA43BB6813
:1029000013409BB2002B14BF01230023DBB2002B2A
:102910008DD1002318461037BD4680BD80B584B0E8
:1029200000AFF860B9607A602DE0F86800F078F8E0
:102930000346002B01D001232DE0BB68B3F1FF3F1C
:1029400021D0FFF72FF902467B68D31ABA689A4262
:1029500002D3BB68002B16D1FB6800221A63FB6808
:10296000202283F83D20FB68002283F83E20FB688C
:102970001B6C43F02002FB681A64FB68002283F89A
:102980003C20012307E0FB681B685B6903F08003C0
:10299000802BCAD1002318461037BD4680BD80B5B4
:1029A00084B000AFF860B9607A602DE0F86800F09C
:1029B00037F80346002B01D001232DE0BB68B3F1AB
:1029C000FF3F21D0FFF7EEF802467B68D31ABA68C2
:1029D0009A4202D3BB68002B16D1FB6800221A630F
:1029E000FB68202283F83D20FB68002283F83E200C
:1029F000FB681B6C43F02002FB681A64FB68002232
:102A000083F83C20012307E0FB681B685B6903F047
:102A10000403042BCAD1002318461037BD4680BDDD
:102A200080B483B000AF78607B681B685B6903F497
:102A30008063B3F5806F1BD17B681B686FF4806285
:102A40005A617B6800221A637B68202283F83D204C
:102A50007B68002283F83E207B681B6C43F00402F5
:102A60007B681A647B68002283F83C20012300E025
:102A7000002318460C37BD465DF8047B704780B4D0
:102A800083B000AF786039607B6893F83D30DBB28B
:102A9000202B29D17B68242283F83D207B681B688A
:102AA0001A687B681B6822F001021A607B681B6849
:102AB0005A6A7B681B6822F010025A627B681B68A6
:102AC000596A7B681B683A680A435A627B681B68CC
:102AD0001A687B681B6842F001021A607B6820223A
:102AE00083F83D20002300E0022318460C37BD4642
:102AF0005DF8047B704780B485B000AF78603960C2
:102B00000023FB817B6893F83D30DBB2202B2AD178
:102B10007B68242283F83D207B681B681A687B68E9
:102B20001B6822F001021A607B681B685B6AFB81EC
:102B3000FB8923F00F03FB813B689AB2FB891343A7
:102B4000FB817B681B68FA895A627B681B681A687C
:102B50007B681B6842F001021A607B68202283F8C0
:102B60003D20002300E0022318461437BD465DF8DF
:102B7000047B704780B582B000AF00237B600023E8
:102B80003B60204B1B6C1F4A43F0805313641D4B6A
:102B90001B6C03F080533B603B681B4B01221A60A7
:102BA000FFF700F8786009E0FEF7FCFF02467B685B
:102BB000D31AB3F57A7F01D903231FE0134B5B6867
:102BC00003F48033B3F5803FEED1114B01221A603C
:102BD000FEF7E8FF786009E0FEF7E4FF02467B6855
:102BE000D31AB3F57A7F01D9032307E0074B5B685B
:102BF00003F40033B3F5003FEED100231846083745
:102C0000BD4680BD0038024040000E4200700040CA
:102C100044000E4280B586B000AF78607B68002B20
:102C200001D1012367E27B681B6803F00103002BDD
:102C300075D0884B9B6803F00C03042B0CD0854B9C
:102C40009B6803F00C03082B12D1824B5B6803F4E2
:102C50008003B3F5800F0BD17E4B1B6803F4003368
:102C6000002B5BD07B685B68002B57D1012342E2CD
:102C70007B685B68B3F5803F06D1764B1B68754A6D
:102C800043F4803313601DE07B685B68B3F5A02FCD
:102C90000CD1704B1B686F4A43F4802313606D4B5B
:102CA0001B686C4A43F4803313600BE0694B1B686C
:102CB000684A23F480331360664B1B68654A23F42B
:102CC000802313607B685B68002B13D0FEF76AFFDC
:102CD000386108E0FEF766FF02463B69D31A642BB1
:102CE00001D9032307E25B4B1B6803F40033002B7D
:102CF000F0D014E0FEF756FF386108E0FEF752FF0F
:102D000002463B69D31A642B01D90323F3E1514BEB
:102D10001B6803F40033002BF0D100E000BF7B6898
:102D20001B6803F00203002B63D04A4B9B6803F03F
:102D30000C03002B0BD0474B9B6803F00C03082BB4
:102D40001CD1444B5B6803F48003002B16D1414B2C
:102D50001B6803F00203002B05D07B68DB68012BA6
:102D600001D00123C7E13B4B1B6823F0F8027B68CD
:102D70001B69DB00374913430B603AE07B68DB6873
:102D8000002B20D0344B01221A60FEF70BFF386174
:102D900008E0FEF707FF02463B69D31A022B01D970
:102DA0000323A8E12B4B1B6803F00203002BF0D098
:102DB000284B1B6823F0F8027B681B69DB00254960
:102DC00013430B6015E0244B00221A60FEF7EAFE65
:102DD000386108E0FEF7E6FE02463B69D31A022B93
:102DE00001D9032387E11B4B1B6803F00203002B6F
:102DF000F0D17B681B6803F00803002B36D07B689A
:102E00005B69002B16D0154B01221A60FEF7CAFE33
:102E1000386108E0FEF7C6FE02463B69D31A022B72
:102E200001D9032367E10B4B5B6F03F00203002B17
:102E3000F0D01BE0094B00221A60FEF7B3FE3861A8
:102E40000EE0FEF7AFFE02463B69D31A022B07D90C
:102E5000032350E10038024000004742800E474201
:102E6000884B5B6F03F00203002BEAD17B681B6881
:102E700003F00403002B00F097800023FB75814BC7
:102E80001B6C03F08053002B0FD10023BB607D4BE4
:102E90001B6C7C4A43F0805313647A4B1B6C03F029
:102EA0008053BB60BB680123FB75774B1B6803F441
:102EB0008073002B18D1744B1B68734A43F48073E2
:102EC0001360FEF76FFE386108E0FEF76BFE024606
:102ED0003B69D31A022B01D903230CE16A4B1B680F
:102EE00003F48073002BF0D07B689B68012B06D124
:102EF000644B1B6F634A43F0010313671CE07B685C
:102F00009B68052B0CD15F4B1B6F5E4A43F004039B
:102F100013675C4B1B6F5B4A43F0010313670BE0C5
:102F2000584B1B6F574A23F001031367554B1B6F18
:102F3000544A23F0040313677B689B68002B15D069
:102F4000FEF730FE38610AE0FEF72CFE02463B69D0
:102F5000D31A41F28832934201D90323CBE0494B83
:102F60001B6F03F00203002BEED014E0FEF71AFEF5
:102F700038610AE0FEF716FE02463B69D31A41F2B9
:102F80008832934201D90323B5E03E4B1B6F03F017
:102F90000203002BEED1FB7D012B05D1394B1B6CBD
:102FA000384A23F0805313647B689B69002B00F040
:102FB000A180344B9B6803F00C03082B5CD07B682A
:102FC0009B69022B41D1314B00221A60FEF7EAFDCA
:102FD000386108E0FEF7E6FD02463B69D31A022B92
:102FE00001D9032387E0274B1B6803F00073002BF4
:102FF000F0D17B68DA697B681B6A1A437B685B6A7D
:103000009B011A437B689B6A5B08013B1B041A43C4
:103010007B68DB6A1B061B4913434B601B4B012279
:103020001A60FEF7BFFD386108E0FEF7BBFD0246FF
:103030003B69D31A022B01D903235CE0114B1B68B7
:1030400003F00073002BF0D054E0104B00221A6004
:10305000FEF7A8FD386108E0FEF7A4FD02463B69D3
:10306000D31A022B01D9032345E0064B1B6803F05A
:103070000073002BF0D13DE07B689B69012B07D1E9
:10308000012338E0003802400070004060004742F1
:103090001B4B5B68FB607B689B69012B28D0FB683E
:1030A00003F480027B68DB699A4221D1FB6803F05C
:1030B0003F027B681B6A9A421AD1FA6847F6C073CE
:1030C00013407A68526A9201934211D1FB6803F46B
:1030D00040327B689B6A5B08013B1B049A4207D124
:1030E000FB6803F070627B68DB6A1B069A4201D0C2
:1030F000012300E0002318461837BD4680BD00BFFD
:103100000038024080B584B000AF786039607B68D9
:10311000002B01D10123CCE0684B1B6803F00F03A7
:103120003A689A420CD9654B3A68D2B21A70634B2E
:103130001B6803F00F033A689A4201D00123B8E0FC
:103140007B681B6803F00203002B20D07B681B68A0
:1031500003F00403002B05D0594B9B68584A43F4F5
:10316000E05393607B681B6803F00803002B05D0D5
:10317000534B9B68524A43F460439360504B9B68A7
:1031800023F0F0027B689B684D4913438B607B689A
:103190001B6803F00103002B44D07B685B68012BA4
:1031A00007D1474B1B6803F40033002B19D10123CF
:1031B0007FE07B685B68022B03D07B685B68032B36
:1031C00007D13F4B1B6803F00073002B09D101238B
:1031D0006FE03B4B1B6803F00203002B01D101237E
:1031E00067E0374B9B6823F003027B685B683449D8
:1031F00013438B60FEF7D6FCF8600AE0FEF7D2FCC2
:103200000246FB68D31A41F28832934201D9032364
:103210004FE02B4B9B6803F00C027B685B689B00C4
:103220009A42EBD1254B1B6803F00F033A689A4290
:103230000CD2224B3A68D2B21A70204B1B6803F0B2
:103240000F033A689A4201D0012332E07B681B6881
:1032500003F00403002B08D0194B9B6823F4E052C1
:103260007B68DB68164913438B607B681B6803F03F
:103270000803002B09D0124B9B6823F460427B6843
:103280001B69DB000E4913438B6000F021F80246F6
:103290000B4B9B681B0903F00F030A49CB5C22FA16
:1032A00003F3094A1360094B1B681846FEF736FC06
:1032B000002318461037BD4680BD00BF003C0240C9
:1032C00000380240C48F00080000002004000020E5
:1032D0002DE9B04F94B000AF00237B640023FB6462
:1032E00000233B640023BB64794B9B6803F00C0311
:1032F000082B0DD0082B00F2E180002B02D0042B0C
:1033000003D0DBE0734BBB64DBE0734BBB64D8E002
:103310006F4B5B6803F03F037B646D4B5B6803F4AA
:103320008003002B63D06A4B5B689B090022BB6360
:10333000FA63BB6BC3F308033B6300237B63D7E9EA
:103340000C4522462B464FF000004FF0000159017A
:1033500041EAD261500102460B462146511A3961B9
:10336000294663EB01037B614FF000024FF000033D
:10337000D7E904AB59468B01514643EA9163514664
:103380008A015146B2EB0108594663EB01094FF03F
:1033900000024FF000034FEAC90343EA58734FEAB3
:1033A000C80290469946234618EB0303BB602B46A0
:1033B00049EB0303FB604FF000024FF00003D7E935
:1033C000024529464B02214643EAD15321464A028F
:1033D000104619467B6C0022BB62FA62D7E90A23C9
:1033E000FDF762FC02460B461346FB6458E0384B7F
:1033F0005B689B09002218461146C0F308033B6234
:1034000000237B62D7E9088942464B464FF0000013
:103410004FF00001590141EAD261500102460B46CA
:103420004146B2EB010A494663EB010B4FF0000243
:103430004FF000034FEA8B1343EA9A634FEA8A1274
:10344000B2EB0A0463EB0B054FF000024FF00003F0
:10345000EB0043EA5473E20014461D464346E3186A
:103460003B604B4645EB03037B604FF000024FF09F
:103470000003D7E9004529468B02214643EA9153D0
:1034800021468A02104619467B6C0022BB61FA6114
:10349000D7E90623FDF708FC02460B461346FB64FA
:1034A0000B4B5B681B0C03F0030301335B003B64B5
:1034B000FA6C3B6CB2FBF3F3BB6402E0054BBB64FC
:1034C00000BFBB6C18465037BD46BDE8B08F00BF8B
:1034D000003802400024F40000127A0080B400AFEB
:1034E000034B1B681846BD465DF8047B704700BF60
:1034F0000000002080B500AFFFF7F0FF0246054B4B
:103500009B689B0A03F007030349CB5C22FA03F391
:10351000184680BD00380240D48F000880B500AF47
:10352000FFF7DCFF0246054B9B685B0B03F00703CC
:103530000349CB5C22FA03F3184680BD00380240F1
:10354000D48F000880B586B000AF786000237B611F
:1035500000233B617B681B6803F00103002B0BD148
:103560007B681B6803F00203002B05D17B681B6896
:1035700003F04003002B75D0914B00221A60FEF738
:1035800011FB786108E0FEF70DFB02467B69D31A58
:10359000022B01D9032389E18A4B1B6803F00063E6
:1035A000002BF0D17B681B6803F00103002B09D0CE
:1035B0007B685B689A017B689B681B0781491343A2
:1035C000C1F884307B681B6803F00203002B1FD016
:1035D0007C4BD3F884301B0F03F007033B617B68FF
:1035E0005B689A017B68DB681B061A433B691B0713
:1035F00074491343C1F88430724BD3F88C3023F0F4
:103600001F027B68DB69013B6E491343C1F88C30B4
:103610007B681B6803F04003002B0DD07B685B6860
:103620009A017B68DB681B061A437B689B681B0753
:1036300064491343C1F88430614B01221A60FEF7DC
:10364000B1FA786108E0FEF7ADFA02467B69D31A59
:10365000022B01D9032329E15A4B1B6803F00063B5
:10366000002BF0D07B681B6803F00403002B05D10E
:103670007B681B6803F00803002B79D0524B0022B3
:103680001A60FEF78FFA786108E0FEF78BFA0246BF
:103690007B69D31A022B01D9032307E1494B1B682D
:1036A00003F00053B3F1005FEFD07B681B6803F0B9
:1036B0000403002B20D0434BD3F888301B0F03F0BA
:1036C00007033B617B681B699A017B685B691B068A
:1036D0001A433B691B073B491343C1F88830394BF8
:1036E000D3F88C3023F4F8527B681B6A013B1B0231
:1036F00034491343C1F88C307B681B6803F008031E
:10370000002B1ED02F4BD3F888301B0E03F00F0375
:103710003B617B681B699A013B691B061A437B6806
:103720009B691B0727491343C1F88830254BD3F801
:103730008C3023F440327B685B6A22491343C1F822
:103740008C30214B01221A60FEF72CFA786108E0D8
:10375000FEF728FA02467B69D31A022B01D903230C
:10376000A4E0184B1B6803F00053B3F1005FEFD1E6
:103770007B681B6803F02003002B00F08B80002384
:10378000FB60104B1B6C0F4A43F0805313640D4BCE
:103790001B6C03F08053FB60FB680C4B1B680B4AEF
:1037A00043F480731360FEF7FDF9786110E0FEF7D3
:1037B000F9F902467B69D31A022B09D9032375E074
:1037C00068004742003802407000474200700040E5
:1037D000384B1B6803F48073002BE8D0364B1B6F0B
:1037E00003F440733B613B69002B2FD07B689B6ADD
:1037F00003F440733A699A4228D02F4B1B6F23F48D
:1038000040733B612D4B01221A602C4B00221A6041
:10381000294A3B691367284B1B6F03F00103012BF7
:1038200014D1FEF7BFF978610AE0FEF7BBF9024652
:103830007B69D31A41F28832934201D9032335E0E0
:103840001D4B1B6F03F00203002BEED07B689B6ABD
:1038500003F44073B3F5407F0DD1174B9B6823F4FD
:10386000F8127B689B6A23F0704323F4407312497B
:1038700013438B6005E0104B9B680F4A23F4F81349
:1038800093600D4B1A6F7B689B6AC3F30B030A4965
:1038900013430B677B681B6803F01003002B04D0F5
:1038A0007B6893F82C20064B1A60002318461837C3
:1038B000BD4680BD0070004000380240400E4742C7
:1038C000E011474280B584B000AF78600123FB73FC
:1038D0007B68002B01D1012366E07B685B7FDBB254
:1038E000002B05D17B6800221A777868FDF744FF2A
:1038F0007B6802225A777B681B68CA225A627B68FF
:103900001B6853225A62786800F0CEFB0346FB73B3
:10391000FB7B002B2CD17B681B689B687A68126844
:1039200023F4E00323F0400393607B681B689968ED
:103930007B685A687B681B691A437B685B691A431A
:103940007B681B680A439A607B681B687A68D26848
:103950001A617B681B6819697B689B681A047B681D
:103960001B680A431A61786800F0D5FB0346FB73B5
:10397000FB7B002B13D17B681B681A6C7B681B6870
:1039800022F480221A647B681B68196C7B689A6930
:103990007B681B680A431A647B6801225A777B683C
:1039A0001B68FF225A62FB7B18461037BD4680BD5C
:1039B00090B587B000AFF860B9607A6000237B6192
:1039C000FB681B7F012B01D1022387E0FB680122EA
:1039D0001A77FB6802225A777B68002B26D1FB6896
:1039E0001B689B6803F04003002B02D1BB680022D8
:1039F000DA70BB681B78184600F0B2FB03461C0463
:103A0000BB685B78184600F0ABFB03461B021C4307
:103A1000BB689B78184600F0A3FB034644EA030208
:103A2000BB68DB789B0513437B6118E0FB681B6870
:103A30009B6803F04003002B02D1BB680022DA70C0
:103A4000BB681B781A04BB685B781B021343BA6817
:103A500092781A43BB68DB789B0513437B61FB6854
:103A60001B68CA225A62FB681B6853225A62F868B4
:103A700000F01AFB0346FB74FB7C002B20D1FB6893
:103A80001A687B6903F07F3323F0FE431360FB6801
:103A90001B689A68FB681B6822F480229A60FB68A6
:103AA0001B689968BB68DA68BB681B691A43FB68C6
:103AB0001B680A439A60F86800F02DFB0346FB740C
:103AC000FB7C002B02D1FB6801225A77FB681B6844
:103AD000FF225A62FB6800221A77FB7C18461C37CB
:103AE000BD4690BD80B586B000AFF860B9607A6021
:103AF00000237B61FB681B689A6ABB685A60FB689D
:103B00001B681B69C3F30E02BB689A60FB681B68E5
:103B10001B6803F07F3323F0FE437B617B691B0C42
:103B2000DBB203F03F03DAB2BB681A707B691B0A91
:103B3000DBB203F07F03DAB2BB685A707B69DBB299
:103B400003F07F03DAB2BB689A707B699B0DDBB22E
:103B500003F00103DAB2BB68DA707B68002B1AD17C
:103B6000BB681B78184600F018FB03461A46BB6872
:103B70001A70BB685B78184600F00FFB03461A46C4
:103B8000BB685A70BB689B78184600F006FB03467A
:103B90001A46BB689A70002318461837BD4680BD88
:103BA00090B587B000AFF860B9607A6000237B61A0
:103BB000FB681B7F012B01D1022371E0FB6801220E
:103BC0001A77FB6802225A777B68002B0ED1BB68FC
:103BD0005B7803F01003002B08D0BB685B7823F000
:103BE0001003DBB20A33DAB2BB685A707B68002B71
:103BF0001CD1BB68DB78184600F0B2FA03461C04FF
:103C0000BB685B78184600F0ABFA03461B021C4306
:103C1000BB689B78184600F0A3FA034644EA030207
:103C2000BB681B785B0313437B610EE0BB68DB78EA
:103C30001A04BB685B781B021343BA6892781A4374
:103C4000BB681B785B0313437B61FB681B68CA225C
:103C50005A62FB681B6853225A62F86800F024FA23
:103C60000346FB74FB7C002B0CD1FB681A687B6954
:103C700023F07F4323F0C0035360F86800F04BFA51
:103C80000346FB74FB7C002B02D1FB6801225A77B0
:103C9000FB681B68FF225A62FB6800221A77FB7CD4
:103CA00018461C37BD4690BD80B586B000AFF860A1
:103CB000B9607A6000237B61FB681B685B6823F056
:103CC0007F4323F0C0037B617B691B0CDAB2BB68C6
:103CD000DA707B691B0ADBB203F01F03DAB2BB6840
:103CE0005A707B69DBB203F03F03DAB2BB689A70AB
:103CF0007B695B0BDBB203F00703DAB2BB681A70B7
:103D00007B68002B1AD1BB68DB78184600F045FAB7
:103D100003461A46BB68DA70BB685B78184600F049
:103D20003CFA03461A46BB685A70BB689B78184633
:103D300000F033FA03461A46BB689A70002318460F
:103D40001837BD4680BD000090B589B000AFF8605F
:103D5000B9607A609A4B1B689A4AA2FB0323DB0A7C
:103D60004FF47A7202FB03F37B610023FB610023B3
:103D7000BB61FB681B7F012B01D102231CE1FB68A7
:103D800001221A77FB6802225A777B68002B37D111
:103D9000FB681B689B6803F04003002B02D1BB68E3
:103DA0000022DA70BB681B78184600F0D9F9034688
:103DB0001C04BB685B78184600F0D2F903461B026E
:103DC0001C43BB689B78184600F0CAF9034644EAD6
:103DD0000302BB68DB789B0542EA0304BB6893F8E7
:103DE0002030184600F0BCF903461B0644EA0302E3
:103DF000BB68DB691A43BB685B691343FB6123E063
:103E0000FB681B689B6803F04003002B02D1BB6872
:103E10000022DA70BB681B781A04BB685B781B024F
:103E20001343BA6892781A43BB68DB789B051A4340
:103E3000BB6893F820301B061A43BB68DB691A4342
:103E4000BB685B691343FB61BB685A68BB689B69CD
:103E50001343BB61FB681B68CA225A62FB681B687C
:103E600053225A62BB685B6AB3F5807F41D1FB681D
:103E70001B689A68FB681B6822F480729A60FB6872
:103E80001B68DB68DAB2FB681B6862F4C072DA6038
:103E90007B695A1E7A61002B0BD1FB681B68FF22DD
:103EA0005A62FB6803225A77FB6800221A770323C1
:103EB00082E0FB681B68DB6803F00103002BE7D09E
:103EC000FB681B68FA69DA61FB681B68BA695A64A7
:103ED000FB681B689A68FB681B6842F480729A60F2
:103EE000FB681B689A68FB681B6842F480529A6002
:103EF0004BE0FB681B689A68FB681B6822F4007241
:103F00009A60FB681B68DB68DAB2FB681B6862F4C6
:103F10002072DA602A4B1B682A4AA2FB0323DB0AC1
:103F20004FF47A7202FB03F37B617B695A1E7A615C
:103F3000002B0BD1FB681B68FF225A62FB6803222F
:103F40005A77FB6800221A77032335E0FB681B6869
:103F5000DB6803F00203002BE7D0FB681B68FA69FB
:103F60001A62FB681B68BA699A64FB681B689A68E6
:103F7000FB681B6842F400729A60FB681B689A68D1
:103F8000FB681B6842F400529A600F4B1B680E4A94
:103F900043F4003313600C4B9B680B4A43F400332B
:103FA0009360FB681B68FF225A62FB6801225A7704
:103FB000FB6800221A77002318462437BD4690BDBF
:103FC00000000020D34D6210003C014080B582B05B
:103FD00000AF78607B681B689B6803F48053002BFC
:103FE00012D07B681B68DB6803F48073002B0BD056
:103FF0007868FDF779F97B681B68DB68DAB27B6863
:104000001B6862F4C072DA607B681B689B6803F40B
:104010000053002B12D07B681B68DB6803F400732D
:10402000002B0BD0786800F006F97B681B68DB6812
:10403000DAB27B681B6862F42072DA60054B4FF4D9
:1040400000325A617B6801225A7700BF0837BD46AB
:1040500080BD00BF003C014080B584B000AF7860F7
:104060000023FB607B681B68DA687B681B6822F0B2
:10407000A002DA60FDF796FDF86009E0FDF792FD19
:104080000246FB68D31AB3F57A7F01D9032307E010
:104090007B681B68DB6803F02003002BEED0002355
:1040A00018461037BD4680BD80B584B000AF78603B
:1040B0000023BB600023FB737B681B68DB6803F095
:1040C0004003002B22D17B681B68DA687B681B6881
:1040D00042F08002DA60FDF765FDB8600CE0FDF7A4
:1040E00061FD0246BB68D31AB3F57A7F04D97B68B9
:1040F00004225A770123FB737B681B68DB6803F09B
:104100004003002B02D1FB7B012BE8D1FB7B18463F
:104110001037BD4680BD80B584B000AF7860002305
:10412000FB737B681B68DA687B681B6822F080027F
:10413000DA607B681B689B6803F02003002B0AD1C0
:104140007868FFF789FF0346002B04D07B680422C0
:104150005A770123FB73FB7B18461037BD4680BDA1
:1041600080B485B000AF0346FB710023FB7305E00C
:10417000FB7B0133FB73FB790A3BFB71FB79092B5A
:10418000F6D8FB7B1B01DAB2FB791343DBB218468E
:104190001437BD465DF8047B704780B485B000AF2E
:1041A0000346FB710023FB73FB791B09DBB21A4644
:1041B000920013445B00FB73FB7903F00F03DAB248
:1041C000FB7B1344DBB218461437BD465DF8047B15
:1041D000704780B487B000AFF860B9607A600023A0
:1041E0007B61FB681B6850337B61BB689B007A690D
:1041F00013447B617B697A681A6000BF1C37BD4637
:104200005DF8047B704780B485B000AF786039609A
:104210000023FB607B681B685033FB603B689B009E
:10422000FA681344FB60FB681B6818461437BD46E8
:104230005DF8047B704780B483B000AF786000BF46
:104240000C37BD465DF8047B704780B582B000AF87
:1042500078607B68002B01D101233FE07B6893F8F5
:104260003D30DBB2002B06D17B68002283F83C2076
:104270007868FDF7B3FA7B68242283F83D207B68D9
:104280001B68DA687B681B6822F40052DA60786881
:1042900000F028F87B681B681A697B681B6822F4A9
:1042A00090421A617B681B685A697B681B6822F020
:1042B0002A025A617B681B68DA687B681B6842F4D3
:1042C0000052DA607B6800221A647B68202283F83F
:1042D0003D207B68202283F83E20002318460837C3
:1042E000BD4680BD2DE9B04FC0B000AFC7F8F400A7
:1042F000D7F8F4301B681B6923F44050D7F8F4302A
:10430000D968D7F8F4301A6840EA01031361D7F886
:10431000F4309A68D7F8F4301B691A43D7F8F430B0
:104320005B691A43D7F8F430DB691343C7F8F830F8
:10433000D7F8F4301B68DB6823F4164121F00C0138
:10434000D7F8F4301A68D7F8F8300B43D360D7F8B1
:10435000F4301B685B6923F44070D7F8F430996936
:10436000D7F8F4301A6840EA01035361D7F8F43003
:104370001A688F4B9A4205D0D7F8F4301A688D4BE3
:104380009A4204D1FFF7CAF8C7F8FC0003E0FFF730
:10439000B1F8C7F8FC00D7F8F430DB69B3F5004F8B
:1043A00040F00C81D7F8FC300022C7F8E830C7F89D
:1043B000EC20D7E93A4522462B469118B9655B4176
:1043C000FB65D7E91623214612EB0108294643EB8A
:1043D00001094FF000024FF000034FEAC90343EA1E
:1043E00058734FEAC80290469946234618EB0303D8
:1043F000C7F8E0302B4649EB0303C7F8E430D7F8A1
:10440000F4305B680022C7F8D830C7F8DC20D7E961
:1044100036120B46DB183B65134642EB03037B6504
:10442000D7E91423D7E93801FCF73EFC02460B46D6
:10443000614BA3FB02235B091C01D7F8FC3000226F
:10444000C7F8D030C7F8D420D7E9348942464B4664
:104450009118B9645B41FB64D7E91223414612EB22
:10446000010A494643EB010B4FF000024FF00003F5
:104470004FEACB0343EA5A734FEACA0292469B467D
:1044800043461AEB0303C7F8C8304B464BEB030314
:10449000C7F8CC30D7F8F4305B680022C7F8C030DA
:1044A000C7F8C420D7E930120B46DB183B6413462B
:1044B00042EB03037B64D7E91023D7E93201FCF711
:1044C000F3FB02460B4611463B4BA3FB01235B0962
:1044D000642202FB03F3CB1ADB0003F13202364BFA
:1044E000A3FB02235B095B0003F4F8731C44D7F8B9
:1044F000FC300022C7F8B830C7F8BC20D7E92E89B5
:1045000042464B469118B9635B41FB63D7E90E23E2
:1045100041465118396349464B417B634FF00002D5
:104520004FF00003D7E90CAB5946CB00514643EAA4
:1045300051735146CA0010461946034642469B181D
:10454000C7F8B0304B460A4642EB0303C7F8B43015
:10455000D7F8F4305B680022C7F8A830C7F8AC2061
:10456000D7E92A120B46DB18BB62134642EB030362
:10457000FB62D7E90A23D7E92C01FCF795FB024639
:104580000B460D4BA3FB02135B09642101FB03F3F4
:10459000D31ADB003233084AA2FB03235B0903F082
:1045A0000702D7F8F4301B6822449A6006E100BF86
:1045B00000100140001401401F85EB51D7F8FC307A
:1045C0000022C7F8A030C7F8A420D7E928894246BE
:1045D0004B46911839625B417B62D7E9082341461B
:1045E0005418494643EB01054FF000024FF0000319
:1045F000EB0043EA5473E20014461D464346E318B9
:10460000C7F898304B4645EB0303C7F89C30D7F802
:10461000F4305B680022C7F89030C7F894204FF060
:1046200000024FF00003D7E9244529468B002146BC
:1046300043EA917321468A00D7E92601FCF734FB4F
:1046400002460B46604BA3FB02235B091C01D7F813
:10465000FC300022C7F88830C7F88C20D7E92289BF
:1046600042464B469118B9615B41FB61D7E906238D
:1046700041465118396149464B417B614FF0000278
:104680004FF00003D7E904AB5946CB00514643EA4B
:1046900051735146CA0010461946034642469B18BC
:1046A000C7F880304B460A4642EB0303C7F8843014
:1046B000D7F8F4305B680022BB67FA674FF000025E
:1046C0004FF00003D7E91E8949468B00414643EA73
:1046D000917341468A00D7E92001FCF7E5FA0246CA
:1046E0000B461146384BA3FB01235B09642202FBF6
:1046F00003F3CB1A1B013233334AA2FB03235B09BA
:1047000003F0F0031C44D7F8FC3000223B677A67C3
:10471000D7E91C8942464B469118B9605B41FB6062
:10472000D7E9022341465118396049464B417B6025
:104730004FF000024FF00003D7E900AB5946CB0021
:10474000514643EA51735146CA0010461946034682
:1047500042469B18BB664B460A4642EB0303FB6688
:10476000D7F8F4305B6800223B667A664FF00002AF
:104770004FF00003D7E9188949468B00414643EAC8
:10478000917341468A00D7E91A01FCF78DFA024677
:104790000B460D4BA3FB02135B09642101FB03F3E2
:1047A000D31A1B013233084AA2FB03235B0903F02F
:1047B0000F02D7F8F4301B6822449A6000BF07F557
:1047C0008077BD46BDE8B08F1F85EB512DE9FF47CF
:1047D00055EC104B002D0E4619462B46BBBF05F17C
:1047E00000431D4600232D230B700D9BDDF830A0E8
:1047F000914623F02008BCBF22461446B8F1460F6C
:1048000005D0B8F1450F00D10136022100E00321A7
:1048100003AB019302AB009345EC104B5346324679
:1048200001F07EF8B8F1470F074602D119F0010FE9
:1048300022D0B8F1460F07EB060910D13B78302B98
:104840000AD10022002320462946FCF74DF918B969
:10485000C6F10106CAF80060DAF800309944002277
:10486000002320462946FCF73FF908B1CDF80C900B
:104870003022039B4B4507D3039B0E9ADB1B384624
:10488000136004B0BDE8F087591C03911A70F0E77B
:10489000F7B503460029B8BF494203F8022BB4BF5D
:1048A0002D222B22092942702ADD0DF1070217461D
:1048B0000A26944691FBF6F506FB151430340CF8E5
:1048C000014C0C46632C02F1FF322946F1DC3031F9
:1048D000ACF1020402F8011C411C2246BA420AD380
:1048E0000DF10902A2EB0C02BC4288BF0022134466
:1048F000181A03B0F0BD12F8015B01F8015FEDE793
:10490000302330318370C170031DF1E72DE9F04F82
:104910002DED028B8DB00C46DDF8608016461F46EB
:10492000054600F0F7FED0F800A05046FBF7B0FCBB
:1049300000230A9323680593D8F8003094F818B040
:10494000073323F0070303F10802C8F80020D3E976
:10495000008929F000430793CDF8188008EE100A6B
:10496000C4E91289DDE906019E4B4FF0FF32FCF7E6
:10497000EDF888BBDDE906019A4B4FF0FF32FCF7FA
:10498000C7F848BB0022002340464946FCF7B6F86A
:1049900010B12D2384F84330934A944BBBF1470F59
:1049A00094BF9046984603232361059B23F004039C
:1049B00023604FF00009009733460BAA2146284692
:1049C00000F0DAF9013040F090804FF0FF300DB088
:1049D000BDEC028BBDE8F08F42464B46404649464F
:1049E000FCF7B4F840B14B46002BBCBF2D2384F834
:1049F00043307F4A7F4BD1E763680BF0DF020692BA
:104A00005A1C3FD106236360059B616843F48062B2
:104A1000002303930AABCDE901B309AB49EC108B3A
:104A2000009322600DF123032846FFF7CFFE069B7B
:104A30000999472B804608D1C81C02DB636899425C
:104A400041DDABF102035FFA83FBBBF1650F20D8B8
:104A500001395A4604F150000991FFF719FF0A9AEB
:104A60001318012A8146236102DC2268D20701D58E
:104A7000013323619DF82330002B9CD02D2384F833
:104A8000433098E7069A472ABED1002BBCD10123B8
:104A9000B9E7BBF1660F18D1002963680BDD21610E
:104AA00013B92268D00702D501330B442361A165F5
:104AB0004FF00009DEE713B92268D20701D50233AF
:104AC000F4E70123F2E74FF0670B0A9B994205DBFD
:104AD00023682161D807EAD54B1CE7E70029D4BF3A
:104AE000C1F1020201221344E0E723685A0507D40A
:104AF0002369424631462846B84701302CD164E745
:104B0000BBF1650F40F2E080D4E9120100220023DE
:104B1000FBF7EAFF002834D0374A01233146284604
:104B2000B84701303FF451AFDDE909239A4202DB77
:104B30002368D80710D518EE103A52463146284659
:104B4000B84701303FF441AF4FF0000804F11A09B3
:104B50000A9B013B434509DC23689B0700F1078161
:104B6000E0680B9B9842B8BF184630E701234A46DD
:104B700031462846B84701303FF427AF08F1010815
:104B8000E6E7099B002B39DC1B4A01233146284606
:104B9000B84701303FF419AFDDE90932134302D1C0
:104BA0002368D907D8D518EE103A52463146284620
:104BB000B84701303FF409AF4FF0000904F11A0A79
:104BC000099B5B424B4501DC0A9B92E7012352465D
:104BD00031462846B84701303FF4F7AE09F10109E4
:104BE000EEE700BFFFFFEF7FDC8F0008E08F0008DB
:104BF000E48F0008E88F0008EC8F00080A9AA36D84
:104C00009A42A8BF1A46002A914637DC4FF0000BA3
:104C100029EAE97904F11A02A36D0593A3EB0903CC
:104C20005B4533DCDDE909239A423BDB2368DA0785
:104C300038D4DDE90932A2EB0309059BD21A91456C
:104C4000A8BF9146B9F1000F35DC4FF0000829EA02
:104C5000E97904F11A0ADDE909239B1AA3EB090398
:104C600043457FF779AF0123524631462846B8477E
:104C700001303FF4AAAE08F10108ECE713463146D3
:104C800042462846B8470130C0D19EE6012331464E
:104C900028460592B84701303FF497AE059A0BF1CC
:104CA000010BB9E718EE103A524631462846B8478C
:104CB0000130BED189E6059A4B464244314628462A
:104CC000B8470130C1D180E60A9A012A01DCDB072E
:104CD0003AD50123424631462846B84701303FF4D1
:104CE00074AE18EE103A524631462846B8470130A5
:104CF0003FF46BAED4E9120100220023DDF828A0B6
:104D0000FBF7F2FED8B90AF1FF3308F10102314690
:104D10002846B84701300ED157E6012352463146A6
:104D20002846B84701303FF450AE08F101080A9B0D
:104D3000013B4345F1DC4B4604F15002DAE64FF00B
:104D4000000804F11A0AF2E701234246DFE70123D3
:104D50004A4631462846B84701303FF436AE08F19E
:104D60000108E3680B995B1A4345F0DCF8E64FF065
:104D7000000804F11909F4E72DE9F04716469946B1
:104D80008A680B69DDF820809342B8BF1346336010
:104D900091F8432007460C460AB10133336023687B
:104DA000990642BF336802333360256815F0060563
:104DB00006D104F1190AE36832689B1AAB4226DC7B
:104DC00094F84320131E226818BF012392062BD4A7
:104DD00004F1430249463846C04701301ED02368DB
:104DE000226903F00603042B02BFE5683368ED1A5D
:104DF000A3680CBF25EAE57500259342C4BF9B1A42
:104E0000ED1800261A34B5421AD1002008E001231B
:104E1000524649463846C047013003D14FF0FF3073
:104E2000BDE8F0870135C6E7E1185A1C302081F84B
:104E30004300224494F8451082F843100233C7E738
:104E40000123224649463846C0470130E6D00136A4
:104E5000D9E700002DE9FF470F7E0C9D782F914682
:104E600080460C469A4601F1430207D8622F0AD8C1
:104E7000002F00F0D480582F00F0C08004F14205CC
:104E800084F842703AE0A7F16303152BF6D801A12C
:104E900051F823F0ED4E0008014F00087D4E000848
:104EA0007D4E00087D4E00087D4E0008014F000831
:104EB0007D4E00087D4E00087D4E00087D4E0008A6
:104EC000055000082D4F0008BF4F00087D4E000818
:104ED0007D4E0008275000087D4E00082D4F000829
:104EE0007D4E00087D4E0008C74F00082B681A1D34
:104EF0001B682A6004F1420584F8423001239FE0D8
:104F000020682B68070603F10401296001D51E689B
:104F100003E04606FBD5B3F90060002E03DA2D232B
:104F2000764284F843305A480A2312E02B682068FE
:104F3000191D2960050601D51E6802E04106FBD552
:104F40001E8853486F2F0CBF08230A23002184F8C2
:104F500043106568A560002DA2BF216821F00401FF
:104F600021600EB9002D4BD01546B6FBF3F103FBC3
:104F70001167C75D05F8017D3746BB420E46F4D97F
:104F8000082B0BD12368DE0708D523696168994295
:104F9000DEBF302305F8013C05F1FF35521B2261CD
:104FA000CDF800A04B4603AA21464046FFF7E4FE99
:104FB00001304AD14FF0FF3004B0BDE8F0872368DC
:104FC00043F0200323603348782784F84570236832
:104FD00029681F0651F8046B02D45F0648BFB6B2B9
:104FE000DF0748BF43F02003296048BF23601EB994
:104FF000236823F0200323601023A7E72448E4E775
:105000001546BDE72B6826686169181D28603506BE
:105010001B6801D5196002E07006FBD519800023DA
:1050200023611546BCE72B681A1D2A601D6862685B
:1050300000212846FBF7DCF808B1401B606063687C
:105040002361002384F84330AAE723692A464946AE
:105050004046D0470130ADD023689B0713D4E068A9
:10506000039B9842B8BF1846A6E70123324649463B
:105070004046D04701309DD00135E36803995B1A63
:10508000AB42F2DCEBE7002504F11906F5E700BFBF
:10509000EE8F0008FF8F00082DE9F04F87B017460C
:1050A00003938B685A1EB2F5AE7F83BF6FF4AE7563
:1050B0005B190293002386BF40F25D138B6002935D
:1050C0000B688B46002543F4F0634BF81C3BCDE99D
:1050D000045580460C465E46AA46A9460195A2683C
:1050E00052B13B681B784E2B64D8402B3CD8A3F1BF
:1050F0002B01C8B20E283AD9B9F1000F03D02368AA
:1051000023F4807323600AF1FF3ABAF1010F00F231
:1051100013815E4500F205810125284607B0BDE8F0
:10512000F08FA3F161020D2AE6D801A151F822F017
:105130006F520008F9500008F9500008F9500008B3
:10514000CF520008A7520008F9500008F950000893
:105150007D520008F9500008F9500008F950000885
:10516000F950000835520008A3F14102DBE70E298F
:10517000C2D801A050F821F027520008F9500008C9
:1051800027520008BB520008F9500008D55100080A
:105190001152000811520008115200081152000863
:1051A0001152000811520008115200081152000853
:1051B000115200086E2B09D8602BB2D8542B77D02F
:1051C000592B99D1072D97D1082529E0742B6FD041
:1051D000792BF6E72168C8051AD5029B21F08001DA
:1051E000216009F101091BB1013B01320293A26068
:1051F000A368013BA3602369013323617B68013B02
:10520000002B7B6040F384803B6801333B6066E7A2
:105210001AEB050F7FF470AF226822F4C07222608F
:1052200006F8013BE4E7226810067FF565AF22F03F
:105230008002F4E7BAF1000F0ED1B9F1000F0ED1E0
:10524000226802F4E061B1F5E06F08D122F4F06267
:1052500022604FF0010AE3E7BAF1020F55D0012DA9
:1052600002D0042D7FF448AF0135EDB2D8E7BAF192
:10527000010F7FF441AF4FF0020AD1E77DB9B9F1D8
:10528000000F7FF43CAF226802F4E061B1F5E06FFB
:105290007FF439AF22F4F06222600125C0E7032DCC
:1052A000E2D0052DDEE7022D7FF426AF0325B7E718
:1052B000062D7FF421AF0725B2E7226891057FF51F
:1052C0001BAF22F420722260CDF80490A8E7226878
:1052D00002F4A061B1F5806F06D050057FF50CAFE8
:1052E000B9F1000F3FF40FAF910558BF019922F4B7
:1052F000F06258BFA9EB010142F4C07258BFCDE97A
:10530000041622604FF000098AE74FF0030A87E78E
:10531000D4F8803139464046984700283FF4DFAE44
:10532000EAE6D4F87C3116F8011D3A464046984723
:105330002369013B2361ECE66B1E062B25D8022D69
:1053400036D85E457FF6E8AED4F87C3116F8011DFC
:105350003A46404698472369013B2361F1E70298AA
:10536000D4F87C3110F8011D02903A464046984727
:105370002369013B23610AF1FF3A5FFA8AFABAF125
:10538000020FECD1033DEDB2761B2368DA052FD571
:105390005B0510D55E457FF6BFAED4F87C3116F8BC
:1053A000011D3A46404698472369013B2361F1E7D6
:1053B000AA460296DFE716F8011C2369652903F166
:1053C000FF3306F1FF3523610CD045290AD0D4F80C
:1053D0007C313A4640469847236916F8021C013B47
:1053E000B51E2361D4F87C313A46404698472E4694
:1053F000256815F0100558D13570236803F4C06393
:10540000B3F5806F1CD1019B4B45A3EB090224D15E
:1054100000225946404602F02FFC039B21681B687E
:1054200011F0020F57EC106B03F1040220D0039926
:105430000A601B68C3E90067E3680133E3606CE658
:10544000049B002BE4D005990A232A4601314046EB
:1054500002F09AFC049B059EC21A04F26F139E424E
:1054600028BF04F5B7761249304600F0E7F8CFE7D9
:1054700011F0040F03990A60DBD1D3F8008010EE1D
:10548000102A10EE100A3B463946FBF75FFB28B1A5
:10549000084800F0B7F988ED000ACDE730463946F4
:1054A000FBF7B2FBC8F80000C6E7002535E600BFF1
:1054B00010900008A5930008002310B50446C0E929
:1054C0000033C0E90433836081814366C281836114
:1054D000194608225C3000F014F90D4B63620D4B45
:1054E000A3620D4BE3620D4B23630D4B24629C4280
:1054F00006D003F16802944202D0D0339C4205D119
:1055000004F15800BDE8104000F078B910BD00BFAC
:105510007D5600089F560008D7560008FB56000825
:10552000C8020020024A0349034800F069B800BFDE
:105530000C000020498100081800002041680C4B35
:10554000994210B5044601D002F0FEFDA168094B56
:10555000994202D0204602F0F7FDE168064B9942DD
:1055600004D02046BDE8104002F0EEBD10BD00BFE3
:10557000C8020020300300209803002010B50B4B18
:105580000B4C0C4A1A60204600220421FFF794FFBE
:1055900004F1680001220921FFF78EFF04F1D00019
:1055A0000222BDE810401221FFF786BF0004002050
:1055B000C802002025550008014800F020B900BFAE
:1055C00009040020014800F01BB900BF09040020B5
:1055D00010B50446FFF7F0FF236A1BB1BDE8104089
:1055E000FFF7F0BF044B2362044B1B68002BF5D17F
:1055F000FFF7C4FFF2E700BF3D550008000400209C
:105600002DE9F8430746884614460026D4E901955B
:10561000B9F1010905D52468002CF7D13046BDE861
:10562000F883AB89012B07D9B5F90E30013303D0CC
:1056300029463846C04706436835E9E70EB400B549
:105640009CB01DAB029006906FF000410948079195
:105650000491094953F8042B05910068019302A9AC
:1056600002F0EEFB029B00221A701CB05DF804EB06
:1056700003B07047640000200802FFFF10B50C461D
:10568000B1F90E1000F06CF80028ABBF636DA38970
:105690001B1823F48053ACBF6365A38110BD2DE9B3
:1056A000F0411F468B89DB0505460C46164605D59D
:1056B000B1F90E100223002200F040F8A389B4F9DA
:1056C0000E1023F48053A38132463B462846BDE8A2
:1056D000F04100F057B810B50C46B1F90E1000F0CB
:1056E0002DF8431CA38915BF606523F4805343F450
:1056F0008053A38118BFA38110BDB1F90E1000F033
:105700000DB802440346934200D1704703F8011BD1
:10571000F9E70000004870475801002038B5064DF1
:105720000023044608462B60FCF72FF9431C02D1E6
:105730002B6803B1236038BD0404002038B5074D41
:1057400004460846114600222A601A46FCF744F92E
:10575000431C02D12B6803B1236038BD0404002030
:1057600038B5074D04460846114600222A601A46FD
:10577000FCF7D2F8431C02D12B6803B1236038BD7B
:105780000404002038B5074D04460846114600229F
:105790002A601A46FCF7DDF8431C02D12B6803B1DE
:1057A000236038BD04040020014B1868704700BF17
:1057B0006400002070B50D4D0D4C641BA410002634
:1057C000A64209D10B4D0C4C03F0D6FB641BA41070
:1057D0000026A64205D170BD55F8043B9847013616
:1057E000EEE755F8043B98470136F2E710940008BD
:1057F0001094000810940008149400087047704733
:10580000704700009FED010A704700BF0000C07F95
:105810002DE9F74F03690C69A34207467EDB013C83
:1058200001F1140800F1140505EB8403019358F805
:10583000243055F8242001339A424FEA840B08EBB8
:105840008409B2FBF3F631D34FF0000E4046AC466C
:10585000F24650F8042B93B206FB03E34FEA124ED4
:105860001A0C9BB2AAEB0303DCF800A013FA8AF32C
:1058700006FB0E220093009B4FEA124E92B2C2EB3F
:105880001A4202EB2342BDF80030814543EA02434D
:105890004CF8043B4FEA224ADBD255F80B302BB9C7
:1058A000019B043B9D421A462CD33C61384601F0D3
:1058B000EFF9002822DB01362946002058F8042B96
:1058C000D1F800C093B2C31A120C13FA8CF3C2EBD6
:1058D0001C4202EB23429BB243EA0243C14541F81A
:1058E000043B4FEA2240E9D255F8242005EB84031B
:1058F00022B9043B9D421A460AD33C61304603B0AC
:10590000BDE8F08F1268043B002ACED1013CC9E704
:105910001268043B002AF0D1013CEBE70020EEE7DF
:105920002DE9F04F2DED048BC56993B08DED020B81
:1059300057EC106BDDF88080079104460A920D93B6
:1059400075B9102000F02AFE0246E06120B9AE4B86
:10595000EF21AE4802F074FCC0E901550560C56056
:10596000E369196851B15A684A60012393408B601A
:10597000204600F007FFE36900221A603B1EBBBF10
:1059800023F00043039300230122ACBFC8F800308A
:10599000C8F800209E4BDDF80C8033EA08031BD1C9
:1059A0000D9A42F20F731360C8F31303334300F0F0
:1059B0009385219B63B9974B27E0974B009308335E
:1059C000219A1360009813B0BDEC048BBDE8F08FF2
:1059D000904B00930333F3E79DED027B002251ECE3
:1059E000170BB0EE478AF0EE678A0023FBF77CF8CE
:1059F000814660B10D9A01231360219B002B00F0BA
:105A00006885864B219A1360013B0093DAE710AA60
:105A100011A92046B0EE480AF0EE680A01F04EFAED
:105A2000C8F30A558246002D7FD018EE903AC3F392
:105A3000130343F07F5351EC180B43F44013A5F2CA
:105A4000FF35CDF8389019460022754BFAF72CFC3B
:105A500067A3D3E90023FAF7DFFD67A3D3E90023A7
:105A6000FAF724FC064628460F46FAF76BFD64A3B6
:105A7000D3E90023FAF7D0FD02460B4630463946FB
:105A8000FAF714FC06460F46FBF776F80022834629
:105A9000002330463946FBF731F848B15846FAF74B
:105AA00051FD32463B46FBF71FF808B90BF1FF3BAF
:105AB000BBF1160F57D85B4B03EBCB03D3E90023A5
:105AC00051EC180BFBF71AF800284ED00BF1FF3BF6
:105AD00000230C93109B5B1B5A1E45BFC3F10103AF
